{
  "contractName": "Counter",
  "abi": [
    {
      "anonymous": false,
      "inputs": [
        {
          "indexed": false,
          "internalType": "uint256",
          "name": "count",
          "type": "uint256"
        }
      ],
      "name": "Count",
      "type": "event"
    },
    {
      "inputs": [],
      "name": "current",
      "outputs": [
        {
          "internalType": "uint256",
          "name": "",
          "type": "uint256"
        }
      ],
      "stateMutability": "view",
      "type": "function",
      "constant": true
    },
    {
      "inputs": [],
      "name": "increment",
      "outputs": [],
      "stateMutability": "nonpayable",
      "type": "function"
    },
    {
      "inputs": [],
      "name": "decrement",
      "outputs": [],
      "stateMutability": "nonpayable",
      "type": "function"
    }
  ],
  "bytecode": "0x608060405234801561001057600080fd5b506101f1806100206000396000f3fe608060405234801561001057600080fd5b50600436106100415760003560e01c80632baeceb7146100465780639fa6a6e314610050578063d09de08a1461006e575b600080fd5b61004e610078565b005b610058610093565b6040516100659190610109565b60405180910390f35b61007661009c565b005b600160008082825461008a9190610153565b92505081905550565b60008054905090565b60016000808282546100ae9190610187565b925050819055507face32e4392fafee7f8245a5ae6a32722dc74442d018c52e460835648cbeeeba16000546040516100e69190610109565b60405180910390a1565b6000819050919050565b610103816100f0565b82525050565b600060208201905061011e60008301846100fa565b92915050565b7f4e487b7100000000000000000000000000000000000000000000000000000000600052601160045260246000fd5b600061015e826100f0565b9150610169836100f0565b925082820390508181111561018157610180610124565b5b92915050565b6000610192826100f0565b915061019d836100f0565b92508282019050808211156101b5576101b4610124565b5b9291505056fea2646970667358221220b796a95148ebea21c75b16ee76a0ebc41e8f11f189750fddfc0959c283d763c064736f6c63430008110033",
  "immutableReferences": {},
  "source": "// SPDX-License-Identifier: MIT\r\npragma solidity ^0.8.17;\r\n\r\ncontract Counter {\r\n    uint256 private _count;\r\n\r\n    //이벤트 등록하랴ㅕ면event를 사용해서 (로그를 찍겠다)\r\n    event Count(uint256 count);\r\n    // 이벤트를 이렇게 등록하면 본인이 실행하고 싶을때 작성해주면 된다.\r\n    //언제 로그를 찍을지\r\n\r\n\r\n    // view는 상태 변수를 변경하는게 아니라 데이터를 읽기만 하는것.\r\n    function current() public view returns(uint256){\r\n        return _count;\r\n    }\r\n\r\n    function increment() public {\r\n        _count += 1;\r\n        emit Count(_count);\r\n        // 변한 상태 변수의 값이 로그에 찍힌다.\r\n    }\r\n\r\n    function decrement() public {\r\n        _count -= 1;\r\n    }\r\n}",
  "sourcePath": "C:\\Users\\KGA_016\\Desktop\\블록체인수업\\22.11.28\\contracts\\Counter.sol",
  "compiler": {
    "name": "solc",
    "version": "0.8.17+commit.8df45f5f.Emscripten.clang"
  },
  "schemaVersion": "3.4.11",
  "updatedAt": "2022-11-28T05:13:37.506Z",
  "networkType": "ethereum",
  "devdoc": {
    "kind": "dev",
    "methods": {},
    "version": 1
  },
  "userdoc": {
    "kind": "user",
    "methods": {},
    "version": 1
  }
}